:108000003140FE2B15425C0175F335D0085A3F40D4
:1080100000000F93072482455C012F839F4FE88067
:10802000001CF9233F4000000F93062482455C01A9
:108030001F83CF43001CFA2304412453B240805ACB
:108040005C015F424A027FD00300C24F4A021F42D6
:108050006C013FD00C00824F6C011F426E013FF05B
:10806000FCFF824F6E011F4202013FF0FDFF824F75
:1080700002011F4202012FF3F0231F426C013FF067
:108080003FFF824F6C01F2430402C2430A02F240F6
:1080900080FF0202F240DAFF0502C2430B02C24334
:1080A0000302F2432402C2432A02F2400F002202DA
:1080B000C2434202F2400300440282432203B24020
:1080C000FF002403F240A5FF2101824324018243E3
:1080D0002601C243210132D0F000034332D0F00028
:0880E000FD3F3040E680001373
:10FF8000E280E280E280E280E280E280E280E28061
:10FF9000E280E280E280E280E280E280E280E28051
:10FFA000E280E280E280E280E280E280E280E28041
:10FFB000E280E280E280E280E280E280E280E28031
:10FFC000E280E280E280E280E280E280E280E28021
:10FFD000E280E280E280E280E280E280E280E28011
:10FFE000E280E280E280E280E280E280E280E28001
:10FFF000E280E280E280E280E280E280E2800080D3
:040000030000800079
:00000001FF
